:020000040800F2
:1000000038070020890100083B0F0008370F00085F
:10001000390F00088B02000895110008000000004D
:100020000000000000000000000000003F0F00087A
:100030008D020008000000003D0F0008410F00087D
:10004000A3010008A3010008A3010008A301000800
:10005000A3010008A3010008A3010008A3010008F0
:10006000A3010008A3010008A3010008A3010008E0
:10007000A3010008A3010008A3010008A3010008D0
:10008000A3010008A3010008A3010008A3010008C0
:10009000A3010008A3010008A3010008A3010008B0
:1000A000A3010008A3010008A3010008A3010008A0
:1000B000A3010008A3010008A3010008A301000890
:1000C000A3010008A3010008A3010008A301000880
:1000D000A301000889110008A3010008A30100087A
:1000E000A3010008A3010008A301000800F002F822
:1000F00000F03AF80AA090E8000C82448344AAF188
:100100000107DA4501D100F02FF8AFF2090EBAE885
:100110000F0013F0010F18BFFB1A43F0010318473B
:100120006812000088120000103A24BF78C878C115
:10013000FAD8520724BF30C830C144BF04680C60ED
:10014000704700000023002400250026103A28BF35
:1001500078C1FBD8520728BF30C148BF0B60704739
:100160001FB51FBD10B510BD00F05CF81146FFF7BC
:10017000F7FF01F067F800F07AF803B4FFF7F2FF39
:1001800003BC00F07BF8000009488047094800479D
:10019000FEE7FEE7FEE7FEE7FEE7FEE7FEE7FEE737
:1001A000FEE7FEE704480549054A064B7047000094
:1001B000A10F0008ED0000083801002038070020DA
:1001C00038030020380300204FF0000200B513462A
:1001D00094469646203922BFA0E80C50A0E80C5067
:1001E000B1F12001BFF4F7AF090728BFA0E80C5018
:1001F00048BF0CC05DF804EB890028BF40F8042B11
:1002000008BF704748BF20F8022B11F0804F18BF7D
:1002100000F8012B704770477047704700487047DF
:10022000D80000207546FFF7F9FFAE460500694685
:10023000534620F00700854618B020B5FFF7B2FFFF
:10024000BDE820404FF000064FF000074FF00008D7
:100250004FF0000B21F00701AC46ACE8C009ACE858
:10026000C009ACE8C009ACE8C0098D467047044637
:10027000AFF300802046FFF780FF000001491820FF
:10028000ABBEFEE7260002007047FEE7704710B5E0
:1002900090F821100022022905D00421816380F802
:1002A0002020012010BD01680B6823F00E030B60B5
:1002B00001680B6823F001030B6090F84030C46BB9
:1002C000012101FA03F3636080F8211080F82020F7
:1002D000104610BD10B590F821100024022903D05B
:1002E0000421816301243DE001680A6822F00E02C6
:1002F0000A6001680A6822F001020A601A4A01686D
:10030000914201D1012121E0174A1432914201D1D9
:1003100010211BE0144A2832914201D1891515E0C1
:10032000114A3C32914201D189140FE00E4A5032F9
:10033000914202D14FF4803108E00B4A643291427D
:1003400002D14FF4801101E04FF08071064A083A63
:100350005160012180F82110002180F82010416BAC
:1003600001B18847204610BD080002402DE9F84F32
:10037000DFF8B0910024A9F1040B23460F2709F1FF
:10038000040AABF1040EC6E00125A5402A40AA42AA
:1003900076D1DFF894C14E68A6EB0C0866452BD0E9
:1003A0000DDC032E34D005DC36B3012E19D0022E1D
:1003B0002FD11BE0112E16D0122E2AD119E0B8F53C
:1003C000881F19D006DCB8F5803F15D0B8F5801F1E
:1003D0001FD111E0B8F5001F0ED0B8F5041F18D1D9
:1003E0000AE0CB6815E0CB681B1D12E0CB68083330
:1003F0000FE0CB680C330CE08B682BB1012B4FF076
:10040000080303D0456104E0042302E0056100E035
:100410000023FF2A01D8064601E000F104064FEA56
:10042000840501D9A5F12005D6F8008007FA05FC5E
:1004300028EA0C0803FA05F548EA0508C6F8008022
:100440004D68ED0066D5394DAE6946F00106AE61E6
:10045000AD6924F0030605F001050095344D06EB67
:10046000050CDCF80850A607360F07FA06F825EA4F
:100470000805DFF8C080404503D14FF0000817E0C1
:1004800048E0DFF8B480404502D14FF001080FE0AA
:10049000DFF8A880404502D14FF0020808E0DFF8FD
:1004A000A080404502D14FF0030801E04FF004085E
:1004B00008FA06F848EA0508CCF808804D68D9F82B
:1004C0000060ED02002D4D4601DA164300E0964330
:1004D0002E604D68DAF80060AD02002D554601DA55
:1004E000164300E096432E604D68DBF80060AD03D4
:1004F000002D5D4601DA164300E096432E604D68FC
:10050000DEF80060ED03002D754601DA164300E0C9
:1005100096432E60641C0A6832FA04F57FF434AF07
:10052000BDE8F88F080401400000111000100240DF
:100530000000014000080140000C01400010014093
:10054000001401400AB1016170470904FBE7000093
:10055000014880687047000004000020024881685C
:10056000027811448160704704000020074810B5EC
:10057000016841F010010160032000F075F80F20C0
:1005800000F006F800F024F8002010BD0020024022
:1005900070B50D4D04464FF47A712878B1FBF0F038
:1005A0000A490968B1FBF0F000F0E0FA48B9102CF4
:1005B00007D200222146501E00F036F800206C6061
:1005C00070BD012070BD000004000020100000205C
:1005D0000C4808B5816941F001018161816901F030
:1005E00001010091C16941F08051C161C06900F011
:1005F000805000900448416821F0E06141F00071B2
:10060000416008BD001002400000014000280ADBE4
:1006100000F01F020121914040094FF0E02202EB5F
:100620008000C0F800117047F0B40E4B1B680C46F8
:10063000C3F30223C3F10705042D00D90425191DB6
:10064000072901D2002300E0DB1E012606FA05F18E
:10065000491E214099409E40761E16403143F0BC11
:1006600000F09ABD0CED00E0064900F007020868B2
:100670004FF6FF03184040EA0220034A1043086087
:10068000704700000CED00E00000FA052DE9F0478E
:100690000F46050061D0434E306800F00700B842B5
:1006A00009D2306820F0070038433060306800F02D
:1006B0000700B84251D128683B4C810712D540074A
:1006C00003D5606840F4E06060602878000703D5D7
:1006D000606840F4605060606068A96820F0F000D5
:1006E000084360602878C00728D06868012810D0C7
:1006F0002168022810D0890700292EDA616821F0CC
:10070000030101436160FFF723FF804641F288390E
:100710000DE021688903EFE78901EDE7FFF718FF96
:10072000A0EB0801494502D90320BDE8F0876068C5
:10073000696800F00C00B0EB810FEFD1306800F079
:100740000700B8420BD9306820F00700384330600A
:10075000306800F00700B84201D00120E5E72878B2
:10076000400705D56068E96820F4E06008436060F0
:100770002878000706D56068296920F4605040EAAF
:10078000C100606000F038F86168084AC1F30311E5
:10079000515CC8400649086006480068FFF7F8FE4B
:1007A0000020C2E700200240001002406E13000843
:1007B000100000200800002004480549006849682E
:1007C000044AC1F30221515CC84070471000002068
:1007D000001002407E13000804480549006849687B
:1007E000044AC1F3C221515CC84070471000002088
:1007F000001002407E1300080E4A51680E4801F0B6
:100800000C03042B11D0082B0FD10C48C1F38343E8
:10081000C903C05C0AD55168084AC1F34041921E21
:10082000515C054A5043B0FBF1F07047044948431E
:10083000704700000010024000127A005E130008AA
:1008400000093D002DE9F84F040070D02078C24D1A
:10085000C00749D06868C0F38100012807D06868E4
:10086000C0F38100022809D16868C00306D5286852
:10087000800339D560680028E7D035E06068B0F5BE
:10088000803F0BD010B1B0F5A02F11D0286820F414
:1008900080302860286820F4802002E0286840F436
:1008A00080302860606890B1FFF752FE06460AE08B
:1008B000286840F480202860F0E700BFFFF748FE7A
:1008C000801B642874D828688003F7D50CE0FFF7F4
:1008D0003FFE064605E000BFFFF73AFE801B642896
:1008E000F0D828688003F7D420789C4E80074FF01A
:1008F00001094FF0000839D5686810F00C0F07D0D7
:100900006868C0F38100022809D16868C00306D472
:100910002868800714D52069012808D110E02069D3
:10092000B0B1C6F80090FFF713FE074605E00EE1F0
:10093000FFF70EFEC01B0228C4D828688007F7D531
:100940002868616920F0F80040EAC10028600DE0E5
:10095000C6F80080FFF7FCFD074604E0FFF7F8FD4E
:10096000C01B0228AED828688007F7D4207800077B
:100970002ED57B48A169E1B1C0F80090FFF7E8FDF2
:10098000074604E0FFF7E4FDC01B022810D8686AA0
:100990008007F7D573484FF4FA510068B0FBF1F0C7
:1009A000009000BF0098411E00910028F9D10FE08F
:1009B00082E0C0F80080FFF7CBFD074605E000BFEE
:1009C000FFF7C6FDC01B022876D8686A8007F7D4F7
:1009D0002078400761D5E8690027C00008D4E8699D
:1009E00040F08050E861E869012700F080500090F5
:1009F0005D480168C90513D40168834641F48071DC
:100A00000160FFF7A5FD824606E000BFFFF7A0FDED
:100A1000A0EB0A0064284FD8DBF80000C005F5D52C
:100A2000E06801280AD008B1052813D0286A20F010
:100A300001002862286A20F0040002E0286A40F0E1
:100A400001002862E06841F2883B98B1FFF780FD21
:100A500082460BE0286A40F004002862EEE700BFFF
:100A6000FFF776FDA0EB0A0159455CD8286A80079C
:100A7000F6D50CE0FFF76CFD824605E0FFF768FD58
:100A8000A0EB0A0159454ED8286A8007F6D4012FF9
:100A900003D1E86920F08050E861E06990B36968AB
:100AA000C1F38101022945D00228C6F8608004D034
:100AB000FFF74EFD044639E035E0FFF749FD0746F4
:100AC00005E000BFFFF744FDC01B02282BD82868B3
:100AD0008001F7D4206AB0F5803F05D16868A1682D
:100AE00020F4003008436860D4E9080108436968CD
:100AF00021F4741108436860C6F86090FFF728FD80
:100B0000044606E025E000BFFFF722FD001B022897
:100B100009D828688001F7D51BE000BFFFF718FD52
:100B2000001B022802D90320BDE8F88F2868800145
:100B3000F4D40EE00128F7D06868226A00F480310E
:100B4000914204D1616A00F47010884201D0012002
:100B5000EAE70020E8E700000010024000004242FF
:100B600080044242100000200070004010B5401E7A
:100B7000B0F1807F01D3012010BD4FF0E02460610F
:100B80000F21601700F008FB0020A0610720206102
:100B9000002010BD70477047F8B50168044608682A
:100BA000CA684B6910F00F0F4FF000055AD003F0E0
:100BB000010602F49077374365D0C10705D0D1050F
:100BC00003D5616C41F001016164410705D5D90786
:100BD00003D0616C41F002016164810705D5D9073A
:100BE00003D0616C41F004016164010707D502F094
:100BF0002001314303D0616C41F008016164616CF4
:100C000000293BD0800604D5900602D5204600F08E
:100C1000F7F920684069616CC0F3801001F00801A9
:100C2000014320462BD000F0C4F9206840694006FB
:100C300021D52068143050E8001F21F0400140E821
:100C40000012002AF5D1E06BA8B16E494163E06B58
:100C5000FFF740FB002811D0E06B416B01B0BDE80D
:100C6000F040084783060ED593060CD52046BDE814
:100C7000F84000F0C5B92046FFF78DFFF8BDFFF73B
:100C80008AFF6564F8BD266B2023012E7CD1C60641
:100C90007AD5D60678D508684868009048694FF03C
:100CA0000206400640D5E16B086840680004000C6D
:100CB000E8D0A28D8242E5D9E085886920282DD030
:100CC00020680C3050E8001F21F4807140E80012C9
:100CD000002AF5D12168143151E8000F20F00100FD
:100CE00041E80002002AF5D12068143050E8001FC6
:100CF00021F0400140E80012002AF5D184F842308A
:100D0000256320680C3050E8001F21F0100140E8F6
:100D10000012002AF5D1E06BFFF7B9FA6663A08DE7
:100D2000E18D401A81B22AE0A08DE18D401A81B296
:100D3000E08D0028A6D00029A4D022680C3252E809
:100D4000000F20F4907042E80007002FF5D12068D2
:100D5000143050E8002F22F0010240E80027002F55
:100D6000F5D184F84230256320680C3050E8002F1C
:100D700022F0100240E80023002BF5D166632046E4
:100D8000FFF708FFF8BDFFE705062CD515062AD5A5
:100D900094F841002128F5D1A068B0F5805F01D119
:100DA0002069B0B1206A411C216221680078486046
:100DB000E08C401E0004000CE084E3D12068C16890
:100DC00021F08001C1602068C16841F04001C1602C
:100DD000D8E7206A0088C0F308004860206A00F164
:100DE00002002062E4E74006CCD55006CAD5CA68A6
:100DF000204622F04002CA6084F8413000F09AF8A0
:100E0000C0E70000A30F000870B5040004D094F8F8
:100E10004100002510B106E0012070BD84F840506B
:100E2000204600F023F8242084F841002068C1689F
:100E300021F40051C160204600F044F920680169A6
:100E400021F4904101612068416921F02A0141614A
:100E50002068C16841F40051C1606564202084F8B5
:100E6000410084F842006563002070BD30B585B054
:100E70000024009401940294039400681849884265
:100E80002CD11848816941F480418161816901F464
:100E900080410491816941F0040181618069124DB2
:100EA00000F0040004904FF40070009002200190C4
:100EB0000320039069462846FFF758FA2815CDE924
:100EC0000004694628460294FFF750FA00220121E7
:100ED0002520FFF7A9FB2520FFF798FB05B030BDC3
:100EE00000380140001002400008014090F84230F4
:100EF000202B01D00220704721B11AB100230363D7
:100F000000F026B90120704710B50849006809684B
:100F100088420AD10648007800F0E4F9BDE81040A4
:100F2000012203490148FFF7E1BF10BD1C0000206A
:100F3000000000207047FEE7FEE7FEE770477047BD
:100F4000FFF70CBB30B58FB028216846FFF73CF99E
:100F500014210AA8FFF738F9022501200490009512
:100F60001020059000244FF46010CDE9084007954B
:100F70006846FFF767FC08B172B6FEE70F20CDE9BF
:100F80000A054FF48060CDE90C4002210AA80E94B6
:100F9000FFF77CFB002801D072B6FEE70FB030BD32
:100FA000704710B5406A0021C185C184FFF7F3FD89
:100FB00010BD01680C3151E8002F22F4907241E815
:100FC0000023002BF5D10168143151E8002F22F0E5
:100FD000010241E80023002BF5D1016B012909D161
:100FE00001680C3151E8002F22F0100241E8002383
:100FF000002BF5D1202180F84210002101637047B9
:1010000008B590F84210222901D0022008BD82685C
:101010004FF480539A4201D1016921B1816A9A4209
:101020001BD04AB10AE00268816A5268C2F3080222
:101030000A80816A891C08E0026972B102685268FC
:1010400002F07F020A70816A491C8162C18D491ECB
:101050000904090CC18503D01BE002685268F1E75E
:101060000168CA6822F02002CA600168CA6822F4D6
:101070008072CA6001684A6922F001024A61202137
:1010800080F8421000214163026B012A03D0FFF770
:101090003BFF002008BD0163016801F10C0151E82C
:1010A000002F22F0100241E80023002BF4D1016848
:1010B0000A68D20602D50A6849680091818DFFF757
:1010C00069FDE6E710B5044600680169E26821F4AD
:1010D0004051114301612169A068084361690843D7
:1010E0002168CA6841F20C639A430243CA602068CF
:1010F0004169A26921F4407111434161134920689B
:10110000884202D1FFF768FB01E0FFF755FB00EBD7
:10111000C00101EB0010616864228900B0FBF1F1AD
:10112000B1FBF2F06FF01803434301EB830332216C
:1011300001EB0311B1FBF2F101F0F00202EB001040
:1011400001F00F0108442168886010BD003801409B
:1011500081628285C28500214164222180F842108B
:10116000016921B10168CA6842F48072CA600168ED
:101170004A6942F001024A610068C16841F02001F9
:10118000C1600020704700000148FFF705BD000066
:101190001C000020FEE700000907090E002801DB03
:1011A000034A02E0034A00F00F0081547047000038
:1011B00000E400E014ED00E010B5124C2046217868
:1011C000007B012915D0022912D1617B012900D0B1
:1011D000002100F0AFF8207B617B084440B220730F
:1011E000072801DDFF216173002801DA0120607307
:1011F00010BD28B100202073BDE8104000F08EB86B
:101200000120F8E76400002010B5084C2078002881
:101210000BD0FFF79DF9A168401A6168884204D39A
:10122000FFF7CAFFFFF794F9A06010BD640000202B
:1012300002490020087000F003B80000640000209C
:101240007047000086B0FFF791F9FFF77BFE00249E
:101250001F480094019402940394816941F00401B1
:10126000816180691B4D00F0040004902246FF213B
:101270002846FFF767F9FF2000900120CDE901041F
:101280000220039069462846FFF770F81348124978
:1012900001604FF4E131C0E901140C21C460C0E9E0
:1012A00004418461C461FFF7AFFD08B172B6FEE787
:1012B00001220B490948FFF719FE084800F028F8F9
:1012C000FFF7B6FF00F040F8FFF79EFFFAE70000D7
:1012D0000010024000080140003801401C000020BE
:1012E00000000020094910B50A78074C531CDBB2F6
:1012F0000A2802D0A0540B7010BD0020A0540B701F
:101300000120487010BD000074000020180000206B
:1013100001490860704700001400002070B50546C0
:1013200000242946204600F005F8641CE4B2082C8D
:10133000F7D370BD0122824090B20A4601460148AF
:10134000FFF700B90008014003484178002902D0A6
:101350000021017041707047180000200102020353
:101360000405060708090A0B0C0D0E0F10100000EB
:101370000000000000000102030406070809000045
:101380000000010203040000A81300080000002070
:101390001C00000028010008C41300081C000020E5
:1013A0001C070000440100080000000001000000CC
:1013B00010000000000000000024F4000000000005
:0413C0000000000029
:04000005080000ED02
:00000001FF
